:020000040800F2
:020000020000FC
:2000000000500020792A00082130000825300008293000082D30000831300008253600087D
:20002000253600082536000825360008253600082536000825360008253600083936000894
:2000400025360008253600082536000825360008253600082536000859310008793100080A
:2000600099310008B9310008D9310008592F0008712F0008892F0008A52F0008C12F0008DE
:20008000DD2F0008F92F0008F52D000825360008CD3D00082536000825360008F931000885
:2000A000DD37000801380008253800085D380008B138000821390008913900084133000840
:2000C000593300084D330008653300082536000825360008F93B00084D3C0008A13C0008EC
:2000E0003D320008253600082536000810B5054C237833B9044B13B10448AFF30080012381
:20010000237010BD2808002000000000C059000808B5064B1BB106480649AFF30080064827
:20012000036813B1054B03B1984708BD00000000C05900082C080020280800200000000023
:20014000037C03F0080303F0FF0233B1C26A436AD01A04D56FF0004001E01046704770476A
:20016000103001F09FB8103000F0DABF07B501220DF10701103000F01CFF01280CBF9DF875
:2001800007004FF0FF3003B05DF804FB38B50E4C012594F8BC21D4F8B03105FA02F21B68EA
:2001A0009B681A420ED1142004F0E3FD94F8BC21D4F8B03105FA02F21B689B681A4204BF4B
:2001C000024B1D7038BD00BFF86200084408002007B502AB03F8011D19460122103001F08E
:2001E000EBF803B05DF804FB1D4B4FF088321B68F0B51B681A609B6813F0800F14BF002007
:20020000802013F0400F14BF0027402713F0200F14BF0026202613F0100F14BF00251025CB
:2002200013F0080F14BF0024082413F0040F14BF0021042113F0020F03F0010383F00103D0
:2002400040EA030040EA070040EA060040EA050040EA040014BF0022022208431043F0BD4F
:2002600050650008204B1B6819684FF033330B6043B2002BACBF80230023ACBF00228022C2
:2002800010F0400F14BF42F0400243F0400310F0200F14BF42F0200243F0200310F0100F87
:2002A00014BF42F0100243F0100310F0080F14BF42F0080243F0080310F0040F14BF42F065
:2002C000040243F0040310F0020F14BF42F0020243F00203C0074CBF42F0010243F001034E
:2002E0004A610B61704700BF5065000808B50D4C012594F80C22D4F8003205FA02F21B684A
:2003000012041A614FF4FA7004F01EFD94F80C22D4F8003295401B684FF4FA701D6104F061
:2003200013FDE4E7F86200082DE9F041954CA8B095484FF4165102F085FCD4F8000294F8AC
:200340000C12072202F0CAFF94F80C22012606FA02F2D4F80032D4F800011B681BAD1A6135
:200360008A4B4FF088321B681B681A6094F80C11092202F0B3FFD4F8100194F81C110922F6
:2003800002F0ACFFD4F8A00194F8AC11092202F0A5FFD4F8B00194F8BC11092202F09EFFB9
:2003A000D4F8600194F86C11092202F097FFD4F8500194F85C11032202F090FFD4F870015B
:2003C00094F87C11032202F089FFD4F8800194F88C11032202F082FFD4F8900194F89C11C1
:2003E000032202F07BFF94F85C21D4F8503106FA02F21B6866491A6194F87C21D4F87031DF
:020000040800F2
:020000020000FC
:2004000006FA02F21B681A6194F88C21D4F8803106FA02F21B681A6194F89C21D4F890316C
:2004200006FA02F21B681A6194F8BC01324602F097FC584B4FF0000E1B938DF878608DF804
:2004400079E0CDF870E009AC0FCD0FC4CDF888E00FCD0FC4CDF88CE02F6809AD276012AC2B
:200460000FCD0FC40FCD0FC427604B4F6C4613AD0FCD87F874E40FC495E80F0084E80F00FE
:2004800007F58C68129B404607F58F611C2201F097FD002848D0C7F8008007F23C4000F0A6
:2004A00037FF3146384601F051FC014648B13A4D05F23C442046294600F063FD002833D045
:2004C00005E0384601F042FC0028F0D12CE095F83C3413F0700F27D0304B314E1C60002386
:2004E0008DF87C308DF87D301C934FF47A731D932C4B21461B932C4A03231FA806F1100410
:200500001FAD00F00CFF0FCD0FC40FCD0FC42B6823601C9B73601D9BB3601E9BF360337C90
:2005200043B91948214901E01748214902F0C2FBFFF7DCFEF36A1F4C1F491348236002F0CB
:20054000B9FB21680A22104802F000FC1B490E4802F0B0FB21680A22890A0B4802F0F6FB17
:200560001749094802F0A6FB21680A22090D064802F0ECFB1349044802F09CFB28B0BDE897
:20058000F08100BFF862000820110020506500088D01000880A81201840900202C100020E1
:2005A0005009002030620008946200089B6200087A6200084C090020AD620008C862000883
:2005C000CD620008D062000810B51B4BD3F8802193F88C011168012202FA00F00004086106
:2005E00093F8AC01D3F8A011824009681C468B681A4205D0114B1B78002BF8D0002010BDBF
:20060000FFF7F2FDD4F8803194F88C111A68012303FA01F11161D4F8A021116894F8AC21E9
:2006200003FA02F28B68134005D1044C2478002CF8D0184610BD10BDF86200084408002007
:2006400010B5FFF70FFE154B0121D3F88021106893F88C2101FA02F21204026193F8AC4154
:20066000D3F8A021A14012689468214204D00C4C2478002CF8D00FE093F88C41012101FA14
:2006800004F4046193F8AC3199409368194203D1034B1B78002BF8D010BD00BFF8620008D0
:2006A0004408002070B5144B0546D3F8502193F85C010E461168012202FA00F0086193F80B
:2006C0007C01D3F8704102FA00F02168D3F89041086193F89C3121689A4012040A61002447
:2006E000AC4207DA054B1B7823B9305DFFF7A8FF0134F5E770BD00BFF86200084408002077
:2007000070B50E4641021A4800F03AFD194B0025D3F8502193F85C011168012202FA00F05F
:20072000086193F87C01D3F8701102FA00F009680861D3F8901193F89C3109689A40120411
:200740000A61B54213D00A480B494FF4007200F030FC0024094B1B784BB9074B185D0134D2
:20076000FFF76EFFB4F5007FF4D10135E9E770BD60090020F8620008290E00204408002048
:2007800070B50E4641021B4800F0FAFC1A4B0025D3F8502193F85C011168012202FA00F01E
:2007A000086193F87C01D3F8701102FA00F009680861D3F8901193F89C3109689A400A613C
:2007C000B54211D000240D4B1B7893B9FFF7FCFE0B4908550134B4F5007FF4D1054822466E
:2007E00000F0EAFD0135EBE70248BDE8704000F059BD70BD60090020F862000844080020F1
:020000040800F2
:020000020000FC
:20080000290E0020F0B50D4B8BB001AA054603F12007164618685968144603C40833BB4242
:200820002246F7D11868232D2060314694BF28462420FFF737FF0BB0F0BD00BF50620008AF
:2008400010B586B00446002101A8122204F04AFF70238DF804300A238DF80B30074B112C50
:200860001A7894BF204612208DF8062001A900221A70FFF717FF06B010BD00BF280E002056
:2008800007B50F4B1A680023510A500E520C8DF801008DF802208DF80310022208206946C6
:2008A0008DF800308DF804308DF805308DF806208DF80730FFF7F6FE03B05DF804FB00BFF9
:2008C0004C09002038B50B4C012594F80C22D4F8003205FA02F21B6812041A61FFF710FF75
:2008E00094F80C22D4F8003295401B6800201D6138BD00BFF862000838B50B4C012594F83E
:200900000C22D4F8003205FA02F21B6812041A61FFF736FF94F80C22D4F8003295401B6869
:2009200000201D6138BD00BFF8620008F7B5284C06460D461746204600214FF4007204F0B7
:20094000D1FEBEB9234B00961B680196590E5A0A5B0C8DF8023002238DF806308DF80110D4
:200960008DF803206B4603CB0823E3706060A1600C2300E00423042D0ED03F2D01D0032D5F
:200980001AD10322E2541621E21851703F218D42D17203F118030FD10E4A04211568E1548F
:2009A0006A0AE118162048700A71680E01226D0C8870CD704A71183305495A1E9F4234BF7A
:2009C00038461846227003B0BDE8F040FFF76ABE290E00204C09002010B5104BC0B2D3F8DA
:2009E000502193F85C411168012202FA04F424040C6193F87C41D3F8701102FA04F4096840
:200A000024040C61D3F8901193F89C3109689A40BDE8104012040A61FFF712BEF862000894
:200A200038B5184B184CD3F8502193F85C011168012202FA00F00004086193F87C01D3F816
:200A4000701102FA00F0096800040861D3F8901193F89C3109689A400A612568FFF7B4FD9D
:200A60000A4B003018BF0120585523685A1C084B1340002B03DA013B63F0FF030133236055
:200A800038BD00BFF86200084809002045080020FF000080F0B5A74C012594F81C21D4F890
:200AA000103105FA02F21B6885B09B681A4200F0BD8194F86C21D4F8603105FA02F21B68D1
:200AC0009B6812EA030640F0B181FFF78DFBC30740F1AC81984F03223E70D4F8100194F8E3
:200AE0001C1102F0FBFB94F81C21D4F8103105FA02F21B6812041A61D4F860311A6894F899
:200B00006C319D4093681D4203D13B78002BF9D060E194F80C2101219140D4F800311B6819
:200B20009B68194021D1854D85484FF48072296004F0D8FD94F80C21012101FA02F2D4F8AB
:200B400000311B689B681A4202D1FFF769FFF1E72A680023934208DA7949595C19B10720A5
:200B6000FFF73AFF01E00133F4E794F85C21012505FA02F2D4F850311B681A6194F87C21C0
:200B8000D4F8703105FA02F21B6812041A6194F89C21D4F8903105FA02F21B681A61FFF724
:200BA00013FD8DF804004011052896BF654B2E461E560125B54205DAFFF706FD01AB5855E3
:200BC0000135F7E79DF804300B2B00F0BF802BD8042B00F0BB800AD8012B40F2B780032BD1
:200BE00040F0A2809DF80800FFF72AFEAEE0082B5AD003D8062B80F0A98095E00A2B40F07E
:020000040800F2
:020000020000FC
:200C000093809DF808109DF806209DF807309DF8050043EA022300F01F00002943EA0040FC
:200C200008BF4FF4807179E0252B5BD00FD81A2B4DD006D8122B77D19DF80800FFF7E2FDC7
:200C400084E01B2B00F082801E2B7FD06CE02A2B50D016D8282B67D19DF807209DF806309F
:200C6000120442EA03629DF809309DF808001A439DF80B109DF80C3042EA002043EA0121E9
:200C800035E02B2B62D05A2B4ED19DF805009DF806109DF80B209DF80C3000F0800001F0DC
:200CA0003F0143EA02223CE09DF808109DF806209DF807309DF8050043EA022300F01F0058
:200CC000002943EA004008BF4FF480710FE09DF805009DF8061000F0800001F03F019DF819
:200CE00008201EE09DF80C00FFF7CAFD2EE0FFF7E9FD2CE09DF807209DF80630120442EAB1
:200D000003629DF809309DF808001A439DF80B109DF80C3042EA002043EA0121FFF7ECFDAB
:200D200015E0FFF703FE11E0074B05221A7002200DE000BFF86200084408002048090020C6
:200D40004508002074620008280E002000203B78002B3FD194F85C21012505FA02F2D4F8F6
:200D60005031C0B21B68324E1A6194F87C21D4F8703105FA02F21B6812041A6194F89C211C
:200D8000D4F8903105FA02F21B6812041A61FFF757FC284B1B7803F0FF00DBB996F85C21DF
:200DA000D6F8503105FA02F21B6812041A6196F87C21D6F8703105FA02F21B6812041A613C
:200DC00096F89C21D6F8903195401B682D041D61FFF736FC00233B70D4F8803194F88C1196
:200DE0001A68012303FA01F1116194F85C11D4F8502103FA01F11268D4F81001116194F872
:200E00007C11D4F8702103FA01F11268116194F89C11D4F890218B401268136194F81C11E5
:200E2000092205B0BDE8F04002F058BA05B0F0BDF8620008440800201648642310B580F8A7
:200E40006434154B0024C0F86034144BC471C0F87C34012380F8883480F83C4480F83D44E5
:200E600080F86E44C0F89844C0F89C4480F88944C0F88044022100F58F6001F0C3FA084B53
:200E80004FF47A729A60074A1C745C745C601A6010BD00BF84090020E062000800093D0079
:200EA000500900203062000810B50446243000F046FE08B9002010BD04F50C7000F03FFE38
:200EC0000028F7D0206803685B68984710BD8378024663F07F03837011698068103200F022
:200EE000E4BE00002DE9F0410378044603F0200303F0FF050BB100262FE04369184A934263
:200F0000F9D8FFF7E4FF06460028F4D02169A06800F061FE0746A06839462430052200F0CF
:200F200035FE80460028E6D029464FF4007204F0D9FB0125A1680B799D420AD20868424688
:200F40000368E9199B6898470028D4D00135EDB2F0E7626902EB432363613046BDE8F0815C
:200F6000FFFD1F0010B5044680680A462430A16900F00CFE20B1A38803F00F0300EB431078
:200F800010BD70B5057804460E4685B92946242204F0A8FBA660F379102B03D0202B06D118
:200FA000402300E0202301202370A07070BD002070BD2DE9F84F037804468946174653B11B
:200FC0008278D20707D50EE0216904F1100200F008FE00283CDA63784FF0FF3043F002032E
:200FE0006370BDE8F88F1A0703D5E2696369D31A07E09B0608D5A3681A896369C3EB421313
:020000040800F2
:020000020000FC
:201000009BB29F4228BF1F463D464FF0000B002D35D02278636912F0200FC3F3080AA068F0
:201020004FEA532102D0066A0E441DE090F805B001EA0B0BBAF1000F10D1BBF1000F0DD100
:20104000002BC1D156064CBF036A236A236105E004D1237813F0700F11D1BCE7A068216900
:2010600000F0B9FD00EB0B06A068BAF1000F3DD1B5F5007F3AD3C36A9E4203D136E0781B3E
:20108000BDE8F88FB5F5806F1ED322784FEA552A910606D40279CBEB0202D2B2924528BF60
:2010A0009246B3424FEA4A280AD9A368314618684A460368D3F80CC05346E04778B98AE7DF
:2010C00053449E4226D3F0E70068314603684A461B68984700283FF47EAF4FF4007863697E
:2010E000C14443446361C8EB050590E731462430002200F04BFD014600283FF46CAFCAF5CB
:201100000078454538BFA84648465144424604F073FAE4E7243000F012FD0028C5D15AE7BF
:2011200073B501220DF10701044646690569FFF740FF012809BF9DF807004FF0FF30666100
:20114000256102B070BD436937B5C3F34315044605B169B920460DF107010122FFF729FFB5
:2011600040B2012801D0002008E063691F3300E02033A0686361303000EB451003B030BD1E
:20118000F8B5027804460D460769002A35D041698D4235D00DB905612DE0160703D5C36914
:2011A0009D422AD807E0900605D5A3681B89B5EB431F22D81FE0A668481EB37905F1FF3C7C
:2011C0000933D8402CFA03F3834200D329B952064CBF326A226A226100E01B1A1E4656B197
:2011E000A068216904F1100200F0FBFC002806F1FF36F4DC01E0656102E027610020F8BD65
:201200000120F8BDF8B50F4616460021242204461D4604F067FAB8683B6A06F00F02E36022
:2012200000F13003A060A68003EB4212D37A1F0702D500202070F8BD03F017032370D17A88
:2012400011F0180F04BF43F0080323709DF8183015F0320FE37003D0237813F0110FE8D112
:2012600005F00F03A370C36AEE06A361918A538B43EA014104D571B100F04CFD58B9D8E7C3
:201280002162D369E361AB060AD52046E169FFF777FF28B9CDE7A37863F07F03A370F2E72E
:2012A0000120F8BD38B50378044663B390F90230002B23DA0121FFF755FE054628B963783B
:2012C000002043F00103637038BD0378E52BF6D023781B0744BFE369C361236A43831B0CF4
:2012E00083820A4B1B682BB1183005F1160198472B8B6B82A37803F07F03A370A068FFF7BD
:20130000D3FD0028DBD0012038BD00BF3010002010B50446FFF7C6FF0023237010BDF0B503
:201320001F46037893B00C460021064601928DF824108DF825100BB100203BE0237813F030
:20134000700FF9D013782F2B13D101990A782F2A02D101310191F8E722B93046A168FFF741
:2013600010FE27E009A8A168FFF70BFE0028E3D009AC019803A901AA00F009F90028DBD05A
:20138000019B30461B78214603AA83B1012300F02BFA0028D0D009AC35460FCD0FC40FCDA4
:2013A0000FC42B6830462360FFF7B2FFE0E73B4600F01AFA13B0F0BD2DE9B8470378044691
:2013C0001D078946924608D58378990705D55B070BD5E169FFF7D4FE38B963784FF0FF3062
:2013E00043F001036370BDE8B8876369DB439A45F3D857466369002F00F08480A068C3F321
:020000040800F2
:020000020000FC
:20140000080590F8058018EA532819D1C5B9216959B104F1100200F0E4FB0028DDDB0FD1A3
:201420002046FFF754FD58B9D7E7236A3BB92046FFF74DFD0028D0D02369236200E02361CC
:201440002169A06800F0C7FB00EB0801A06815B9B7F5007F20D2C5F50078474538BFB846AE
:2014600035B96269E3699A422CBF0522012200E00122243000F08AFB0028AED028444946E9
:201480004246454404F0B8F8B5F5007F33D1A068243000F054FB19E0B7F5806F18D30279D5
:2014A0007B0AC8EB0208C26A5FFA88F8434528BF43468A424FEA432802D81A44914239D366
:2014C000A2681068026815694A46A84798B984E7C36A8B4204D14FF0FF3380F82450C36216
:2014E000A3684A46186803689B68984700283FF474AF4FF400786369C14443446361C8EB7C
:20150000070777E7E2699342A27801D9E36102E00B4B1B6813B162F07F02A270A3781A0767
:2015200002D45046BDE8B8872046FFF7BBFE0028F7D152E74FF0FF3280F82450C262BFE7F7
:2015400030100020042904D800EB4101B1F8010070470A2904D8013900EB4100C088704720
:2015600010299DBF013100EB4100808800207047002310B5044618464208E15C42EAC01284
:2015800001330A440B2B02F0FF00F5D110BD2DE9F04F05462B780130202BFAD08D60002079
:2015A0002B5C0BB92B1819E02F2BFBD05C2B02D10020BDE8F08F03F0F704222CF8D03A2B78
:2015C000F6D003F0BF043C2CF2D0A3F13E04012CEED9203B5E2BEBD80130E1E71E4613F88C
:2015E000014B202CFAD02F2CF8D0166050B12B1813F8013C2E2B01D0202B01D10138F5E708
:20160000FF28D5DC48600023CA18013320240B2B5473F9D10022AB5C2E2B01D10132FAE79E
:20162000202BFBD0D2F1010738BF0027441E631C07D100264FF0070CB346B0464FF008093B
:2016400009E02B5D2E2BF4D0013CF0E7AB5C202B04D1002701328242F8DB49E02E2B02D17B
:201660009442F6D103E0222B17D07C2B15D0A3F12A0ABAF1050F01D82D2B0ED1A3F13A0ABB
:20168000BAF1050F09D9A3F15B0ABAF1020F04D9A3F1210ABAF15D0F04D9A24224D0002765
:2016A0005F2301E0A2421FD0664541D8A3F1610ABAF1190F04D8203BDBB248EA090806E071
:2016C000A3F1410ABAF1190F98BF4BEA090B06F1010A5FFA8AFA0E44BAF1060F737301D808
:2016E00081F80CA05646B5E7BCF10A0F19D100274B7B202B3FF45CAF4FB118EA0B0F18BF74
:201700004FF0020881F800800120BDE8F08F0B7B0120087019447E234B7331238B73BDE870
:20172000F08F22464FF00A0C08264FF0100991E7BCF10A0FDBD0A242D9DC22464FF00A0CA8
:2017400008264FF0100984E7F8B50D7B07460C4602266168A06873189BB200228A4208D02D
:2017600010F802E003EB43138EEA03039BB20132F4E7032D28BF03252A1DD2B203F00F0155
:20178000A018013A0929D2B294BF30313731AA4241734FEA1313F1D863197E225A73384655
:2017A0000021FFF7EDFC01213846FFF7CCFC014628B97878D0F1010038BF0020F8BD0378AA
:2017C00053B1C37A1B07EED404F10D000B2203F0DFFE0028E7D101E00120F8BD0136B6B2AF
:2017E000642EB6D1F8BD00002DE9F04F8BB006935368089004930B780D4613F0700F174653
:020000040800F2
:020000020000FC
:2018000001D1002091E108990B78002BF9D113789B0700F08181049B03F10C090D23B9FBA0
:20182000F3F909F101095FFA89F94FF0000828460021FFF7A5FCC346CDF8148046464446F8
:20184000CDF81C806B6928460121C3F34F1AFFF77AFC034620B96B78002B00F08880D0E759
:201860000278E52A00D042B9002E08BFD0464E453CBF0136F6B222B979E04E4538BF0026B8
:2018800003E0E52A01D10024DCE72E2AFBD0D97A0F2949D13CB95106D4D5597B02F01F04F7
:2018A0000591A34609E00BF1FF3C5FFA8CFB5A45E9D15A7B05998A42E5D10D210BF1FF3200
:2018C0004A43049992468A42DDD202F10D010991C2EB0A011846C9B202920393FFF732FE0F
:2018E0000499029A8A45039B03D1002818BF0024A8E7FF28C7D8C0B2A0F141011929B9684E
:2019000098BF203011F80AE00AF1010CAEF1410A98BFC0B2BAF1190F9CBF0EF1200E5FFABE
:201920008EFE7045AFD1FAE00807ACD45CB1BBF1010F7FF466AF1846FFF71AFE059B984246
:201940007FF45FAF0EE0184607F10D010B2203F01FFE00287FF476AF3B78D90702D5012329
:2019600007936FE7069B1A0640F1CE8049E7069901F04203422B7FF444AF002E18BFC24652
:201980004E4516D228460021FFF7DDFB10B96B787BB136E70136F6B2F2E72846FFF7A2FAC2
:2019A00000283FF42EAFAB681B79012B03D81036F6B24E45F1D3079B33B128463946FFF793
:2019C000C3FE00283FF41DAF28464FEA4A11FFF7D7FB00283FF415AF09F1FF34E4B2A0468D
:2019E00045E028460021FFF7AEFB064600283FF408AFAB68A04593F824204FF0000942F0F5
:201A0000010283F824200CBF48F0400AC2460F2380F800A0C37280F80C9007F10D00FFF721
:201A2000A7FD0AF01F0A0AF1FF3A0D2202FB0AF27073B86886F81A9086F81B904B46049901
:201A40008A4218D2815C5FFA83FCBCF1040F03F1010E16D806EB4303A3F8011073460D2B96
:201A600002F10102EBD108F1FF385FFA88F8B8F1000FB6D10EE00CBF00216FF0000189B2F7
:201A8000E1E7BCF10A0F94BF06EB430306EB4E039980E3E76B6928464146C3F34F1AFFF72B
:201AA00052FB064600283FF4ACAE2022414603F019FE3B4653F80D2F32605A6872601A8934
:201AC00032819B7AB3723B7803F018033373184B1B682BB106F1100006F10E01984707E01D
:201AE0002123337428237374082386F80E80F373338A73823383F389F382AB6893F82420F1
:201B000042F0010283F824200094089829465246069BFFF777FB08E04FF0010985E609994F
:201B20008C453FF48FAEE246D2E60BB0BDE8F08F3010002008B503689B68984708BD70B551
:201B400003780446DA071ED5436800F10C06A16818683246FFF7EEFF054608B9002513E036
:201B600023789B0704D4237823F0010323700BE06368A2681969186811443246FFF7DAFFAD
:201B80000028F0D1EAE70125284670BD836870B58B4204460D46164615D0FFF7D0FF08B989
:201BA000002070BD730703D500232370A5600AE063682946186804F10C0203681B68984757
:201BC0000028F1D1ECE7237806F003061E43204600F80C6B70BD8379023999404069084446
:201BE0007047012970B504460D46164601D8FF202CE0C3699942FAD8C379202B10D18169B7
:020000040800F2
:020000020000FC
:201C0000022200F50C7001EBD511FFF7BFFF0028EDD005F07F0550F8253023F070430FE0F9
:201C2000102BE4D18369C1F3072100F50C7019440222FFF7ABFF0028D9D0EDB230F815307D
:201C4000E26993429ABF33600120002040B270BD012938B50C46154601D8002038BDC3693A
:201C60009942FAD8C379202B0DD18169032200F50C7001EBD411FFF789FFA8B104F07F04B3
:201C800040F824500FE0102BE7D18369C1F3072100F50C7019440322FFF778FF0028DCD0BA
:201CA000E4B220F81450012038BD2DE9F341054690460F4609B9C66800E00E463446EB694A
:201CC00001349C4288BF02242846214601AAFFF788FF00280DDB01D0019B13B1B442EED191
:201CE00007E0284621466FF07042FFF7B1FF064608B900260AE037B1284639462246FFF721
:201D0000A7FF08B9F5E7EC60C8F80040304602B0BDE8F08173B505460C462846214601AAB1
:201D2000FFF75FFF061E01DA00200DE0284621460022FFF78DFF0028F6D0EB689C4238BFB4
:201D4000EC60019C002EE8D102B070BD012270B50023C26004464FF0FF32C3710D46A06204
:201D600080F82430C262C4F8340280F83032C0F83822A1B1042959D8243019461A46FFF7DC
:201D800005FF002852D000EB051595F8AE2105F5D47553064AD1D5F80E50002D46D004F17A
:201DA000240029460022FFF7F1FE00283ED0B0F80B30B3F5007F39D1037C022B36D1C38940
:201DC000A3B3427B0921531E63710023A371227101239A4207D0013928D0A6795B000136FD
:201DE000DBB2A671F5E7C38A03B9436A2361C1892944A161B0F8112001EB4303228152016F
:201E000002F2FF12236203EB52236361B0F8132002B9026AED1AA1791544CD406B1CE361BD
:201E200040F6F4739D4203D80C23E371002070BD4FF6F4739D4289BFC36A10232362202380
:201E4000E371012070BD38B5057B044655B9806800F091FAA368294693F8280002F044FF56
:201E60000123237338BD037B10B5044673B18368012193F8280002F037FFA068FF2100F002
:201E8000B9FAA06800F0A5FA0023237310BD0000194B2DE9F0411F6804460E461546984669
:201EA000A06800F099FAFF28607309D1D8F80030BAB29BB29B1AB3F5967FF1DD55230BE067
:201EC000FE2801D0502307E0A06831462A4600F087FA607338B1602320462371FFF7C3FF60
:201EE0000020BDE8F081A06800F076FAA06800F073FA0120BDE8F081541200204FF400726D
:201F0000FFF7C6BFF8B50A4B04461D680F461E46A06800F061FAFF2807D03368AAB29BB227
:201F20009B1ABB42F4DD0020F8BD0120F8BD00BF54120020F7B5037B04460D4601920BB910
:201F4000FFF781FF4FF416712046FFF7DBFFA06845F0400100F04EFA0DF107060DF1030742
:201F600016F80119A06800F045FABE42F8D1002D14BF87219521A06800F03CFA0C2D02D1A1
:201F8000A06800F029FA0025A06800F025FA0306607303D50135B5F5807FF5D103B0F0BD31
:201FA00070B506460D46144637210022FFF7C2FF304629462246BDE87040FFF7BBBF0000C0
:201FC00082B02DE9F0470026DFF8909192B004460673067186738160084611461B93D9F8EA
:201FE000008000F0E4F95C4B4FF0010A109611968DF831600A9609938DF830A06E4609AF43
:020000040800F2
:020000020000FC
:202000000FCF0FC60FCF0FC6A5683F68043537606E460FCE0FC50FCE0FC520462F60FFF7D5
:2020200012FFA368514693F8280002F05DFE0A264D46A068FF21013E00F0DCF916F0FF06F3
:20204000F7D1A368314693F8280002F04DFE002120460A46FFF76EFF012809D02B681FFA5E
:2020600088F29BB29B1AB3F5FA6FF0DD202355E0204608214FF4D572FFF75CFF052801D125
:2020800001230BE00426A06800F0A6F9013E16F0FF066073F7D1AA2808D10223A373A37B87
:2020A000022B14BF00264FF0804609E02B681FFA88F29BB29B1AB3F5FA6FD9DD25232DE0C8
:2020C000324620462921FFF76BFF024648B12B681FFA88F29BB29B1AB3F5FA6FF0DD4323CB
:2020E0001CE0A37B022B13D0204609AE1BADFFF7BAFE0FCD0FC60FCDA4680FC604342E68E7
:2021000009AD0FCD0FC40FCD0FC4012026601EE020463A21FFF70EFF30B13723204623710D
:20212000FFF7A1FE002012E0A06800F055F900F0C000C02804BF0323A373A06800F04CF9DE
:20214000A06800F049F9A06800F046F9CCE712B0BDE8F04702B0704790D00300541200206B
:2021600010B5837B0A46032B18BF4A0212210446FFF7E0FE30B1312320462371FFF773FE14
:20218000002010BD012010BD10B50C2100220446FFF7D0FE30B1282320462371FFF763FEC5
:2021A000002010BD2046FFF75EFE012010BD38B504461546806800F01DF94FF40072A0684F
:2021C000294600F01AF9A068FF2100F013F9A068FF2100F00FF9A06800F0FEF8607300F098
:2021E0001F00052806D0572320462371FFF73BFE002038BD012038BD38B50D464FF41671E5
:202200000446FFF77FFE10B95A23237105E02046FC212A46FFF7CBFF18B92046FFF723FE41
:20222000002038BD10B5837B0A46032B18BF4A0219210446FFF77EFE30B1332320462371FE
:20224000FFF711FE002010BD012010BD38B54FF416710446FFF756FE054620B1A068FD2111
:2022600000F0C8F801E0562323712046FFF7FBFD284638BD2DE9F04105460E4617469846E8
:202280000024444509D02868A119036807EB44222846984710B10134F3E70120BDE8F08157
:2022A0002DE9F04105460E46174698460024444509D02868A119836807EB4422284698479D
:2022C00010B10134F3E70120BDE8F08170B5037D0446012B0D46164602D1036999420FD034
:2022E000236820465B68984708B9002070BD20462946FFF735FF0028F7D00123256123750D
:2023000020463146FFF7FAFD10B123690133236170BD027D012A03D100220275FFF734BFC1
:20232000022A03D100220275FFF790BF0120704770B5037D0446022B0D46164602D10369DD
:202340008B420FD0236820465B68984708B9002070BD20462946FFF765FF0028F7D00223ED
:202360002561237520463146FFF746FF10B123690133236170BD70B5044692B054F8046B89
:2023800009AD0FCC0FC50FCC0FC523686C462B600BAD0FCD0FC409AB95E8070084E807004F
:2023A0000CCB3046042100F072F912B070BD10B5044680F828100846002102F053FC94F866
:2023C0002800012102F090FC2068BDE8104000F00FB9006800F07EB90068FF2100F07BB9C5
:2023E00010B50C4693B2006822460021BDE8104000F030BA006800F06EB993B20068002273
:020000040800F2
:020000020000FC
:2024000000F028BA022914BF014B024B03607047341000208010002008B50121044800F00A
:2024200081F8BDE808400348022100F07BB800BF34100020801000200346406818B1597B44
:20244000002201F085B97047162804D01728034818BF002070470248704700BF4C660008B0
:20246000486600082DE9F04F054687B000798A46FFF7EAFF002831D090F80090194C90F879
:2024800001B04FEA091909EB040287784FEA0B1BC6780BEB04081046059204EB0717FFF7A8
:2024A000CBFF4046FFF7C8FF04EB06163846FFF7C3FF3046FFF7C0FF059A2846137B5BF8B5
:2024C00004205146009298F80C2001923A7B0292327B039259F8042001F077F807B0BDE8A4
:2024E000F08F00BFF862000810B50C4600F07AFF20B1094A012818BF002200E0074A5208EB
:202500000023944204D20133072B4FEA5202F8D1034A1344187A10BD00A24A0400512502C5
:202520004866000870B5002304460122C36103622273637363602364636484F8302084F8E3
:2025400031302422A3624B1E02FB03431948012920606062A364184A184E05D0022907D1AF
:2025600031681961164B02E011681961154B1C601368104923611879FFF7B6FF124DA06043
:202580002B68616AA3610323637502232375336863631879FFF7A8FF2B680022E36305236C
:2025A00084F83930042384F83830A36CE062DA73204670BD00093D0020010020240100202E
:2025C000CC100020D010002084000020826C10B5137B5168012B41F4407414BF80230023B3
:2025E0001069117A2343527BBDE8104000F0CFBF836C10B50446186900F09FFFA36C0121F3
:202600001869FFF72FFF2046FFF7E0FFA36C0122DA7310BD836C99601B6901F038011B6875
:202620001A6822F03802114319607047836C19731B691A68136823F0800309B943F080033E
:2026400013607047F8B5836C04461869596003680D461E681F6800F07FFFA36C05F400658A
:202660001B6907F006071B683D4326F400662E431E60F8BD836C5973836C01F003011B6988
:202680001B681A6822F0030211431960704782B010B502A9044681E80C009DF81410FFF78A
:2026A000C5FF20469DF81510FFF7E4FF20460399FFF7C8FFA36C02991B691879FFF714FFD6
:2026C00001462046FFF7A6FF2046BDE8104002B0FFF78EBF7047836C1B691B68DA68D9603A
:2026E0009A689107FCD59A681206FCD4D868C0B270470000F0B5836C85B0054698691746AA
:202700000E4600F0DEFBAB6C5C681869B4F500625442544102688220197D009701940290AA
:2027200098690C32234600F0FBFBAB6C1A69597D126826B90E488DE81100102002E00096BE
:2027400001949020029098690C32234600F0E8FBAB6C00229869597D00F0B6FBAB6C03223A
:202760009869197D05B0BDE8F04000F0ADBB00BF0800002070B504460D4609B9002070BD28
:20278000836C1A6912689168C80748BFD2680422DA739869197D2A4600F0A2FBA36C2A46BE
:2027A0009869597D00F09CFBA36C9869197D00F09FFBA36C597D986900F09AFBA36C186990
:2027C00000F0F7FEA36C186900F0E7FEA36CDA69002AD3D1587D1E4A996901388000166819
:2027E0000D68C0B22968C140890705D41168891B6429F7D9022500E00025186903689A6863
:020000040800F2
:020000020000FC
:202800009107FCD59A681206FCD400F0CCFEA36C186900F0D4FEA36C9869597D00F074FB14
:20282000A36C9869197D00F06FFBA36C187D9A69013811688000012202FA00F04860587D33
:202840000138800002FA00F04860DA73284670BD5412002038B504461D46FFF74BFF20467D
:202860002946BDE83840FFF785BF000001480121FFF758BED4100020704700000B4B10B545
:20288000196809220A230A4800F092F9094B022219680948032300F08BF9BDE81040074B67
:2028A000074819681A221B2300F082B9BC01002020110020C001002038110020C401002046
:2028C0005011002010B5044600F0E0FA034B20461978BDE8104000F074BA00BF1000002057
:2028E000F8B50446056800F0F5FE22680023510101F184410B60802129600121A9622B618D
:20290000EB606379696113B18B4203D02BE04FF400436B644FF6FF73D36200256E1CF7B2BE
:202920002046394600F0E0FED0B1236848F6FF7103F1340242F8251018336D1017F0010FB2
:2029400053F8252014BF6FF0FF016FF47F4101EA020214BF68214FF4D0410A4343F8252026
:20296000042E3546DAD1216801224B01490103F1844301F18441C3F880220A60F8BD0000CF
:2029800038B5274B274C1A68022042F010021A6000F082FC0025002000F03AFD65602368D9
:2029A000182023F40023236000F03FFD102000F03CFD00F043F8A560102000F029FD1020F7
:2029C00000F041FD0028FAD000F039F8164800F047FD182000F01CFD182000F034FD002862
:2029E000FAD0022000F004FD00214FF0006000F0E1FC0E4800F018FE00F038F80C4B1888FA
:202A000000F032FA0B4800F033FA0B4800F04EFE00F02EF800F02DF8FFF72EFF38BD00BF99
:202A20000020024000100240140000203F19010012000020C5280008E1280008704708B5A9
:202A40000020014600F04AFD01204FF4806100F045FD0021022000F041FD2D2000F04EFD68
:202A6000BDE808400320002100F038BD00F01EBC704700F05BBC000001498D460149084702
:202A800000500020892A000808B5124B124A1968914201D0002301E0104B07E01048D418E6
:202AA0008442F9D2C858D0500433F7E70D4A934203D2002243F8042BF8E702F041FD002074
:202AC0000146024602F0C8F8074B0BB102F028FDFEE700BF586600080000002028080020B6
:202AE000280800209812002021550008FEE7C288838892B29BB2C188D31A828889B292B2B4
:202B0000914203D2028992B20132134498B2704710B5036904465868FFF7E9FF90B12369CD
:202B20005B6899881A6889B2505C99881A8989B292B2914217BF9A880022013292B2C0B22F
:202B40009A8010BD4FF0FF3010BD08B503695868FFF7CDFF08BD03695B689988DA8889B2F6
:202B600092B2914205D09A881B6892B2985CC0B270474FF0FF30704703699A689088D1885F
:202B800080B289B28842F9D11A6813685B06FCD5704713B504698DF8071020460DF1070111
:202BA000012200F05DFF0028F7D0012002B010BD30B5002545604FF47A758560024D0161A0
:202BC00005600275437530BD3065000803692DE9F74FDB68044699420F4692462CD890F8EE
:202BE0001480174D4FEA081808EB050690F8159070684FEA091909EB050B717B10B1002253
:020000040800F2
:020000020000FC
:202C000000F0A6FD206900F0FBFE337B9BF80C2020698DE8080459F8051058F8053000F05D
:202C2000A8FF206900213A4600F0C8FF206903B0BDE8F04F00F00ABF03B0BDE8F08F00BF9D
:202C4000F86200080022FFF7C1BFF8B505460C4616468F18BC4206D02B6828461B6814F8C9
:202C6000011B9847F6E73046F8BD38B505460C46084641B102F080FD2B6802469B682846CC
:202C80002146984738BD38BD08B503681B68984708BD08B503685B68984708BD38B50D210B
:202CA0000546FFF7F1FF0A2104462846FFF7ECFF204438BD38B50446FFF7EBFF05462046FE
:202CC000FFF7ECFF284438BD2DE9F04F14461D4691B054EA050381469DF868B004D130217F
:202CE000FFF7D2FF01202EE04FF000085FFA8BF600272046294632463B4602F031F908F1B3
:202D000001080DF1000AC2440AF8012C204629463B46324602F024F904460D4654EA0503AD
:202D2000E4D1002408F1FF381DF808104846092994BF30313731C9B2FFF7A6FF0444B8F17A
:202D4000000FEFD1204611B0BDE8F08F07B5D2B2009200230A46FFF7B7FF03B05DF804FB61
:202D6000222830B50C4615D8A1B1012A04D0022A0CBF0223002300E01346074A000115189D
:202D80001258287B117922460B39C9B2BDE8304000F0CCB930BD00BFF862000810B50446CE
:202DA000007900F069FB2079BDE8104000F07CBB03689A6822F4602242F480121143996077
:202DC0007047002370B51A461C46072B4FEA430503DCEE1801FA06F634431D4401FA05F5D6
:202DE00001330A2B42EA0502EFD10368DC601A6170BD000038B5124D2A6813681C68A107A3
:202E000006D5196821F002011960936803B19847620708D52B681A681B69116821F00401CD
:202E2000116003B19847E30708D52B681A68DB68116821F00101116003B1984738BD00BF2B
:202E400040000020036801225B0103F1844303F58673191F1A6018680028FCD143F8042CEA
:202E60000B68002BFCD170470146042000F036BB044B10B504461868A047034B1868A0476A
:202E800010BD00BF400000203C00002010B50446FFF784FF20464FF46021FFF789FF23682F
:202EA000012103F1404308335A015B0102F1844203F18443116520461960BDE81040FFF7D3
:202EC000C1BF007900F0D8BA03680139142041430833585820F4405040EA02325A507047CC
:202EE000036801390833142000FB01335A60704702680139142303FB01235B0103F184430A
:202F00000122C3F80021704702680139142303FB01235B0103F184430022C3F80021704732
:202F20002DE9F041984614254B1E5D4317460668FFF7EAFF9DF81C104FEA082848EA81287B
:202F400008990836069B741948EA01017151E360A760BDE8F0810000044B10B51C68A3686B
:202F60001BB19847236801225A6010BD84000020044B10B51C6823691BB198472368102241
:202F80005A6010BD84000020054B10B51C68A36923B1984723684FF480725A6010BD00BFA8
:202FA00084000020054B10B51C68236A23B1984723684FF480525A6010BD00BF840000200A
:202FC000054B10B51C68A36A23B1984723684FF480325A6010BD00BF84000020054B10B519
:202FE0001C68236B23B1984723684FF480125A6010BD00BF84000020054B10B51C68A36B1B
:020000040800F2
:020000020000FC
:2030000023B1984723684FF080725A6010BD00BF8400002000000000000000000000000057
:20302000012007E0022005E0032003E0042001E00520FFE70D4A0121116072B60C4A0021E2
:203040001160074902B4084902B486B005498E46704700BFAFF30080AFF30080AFF30080BE
:2030600000000061F9FFFFFF414C000814ED00E010E000E0AFF30080AFF30080AFF300804D
:2030800038B50446274D9DF8100045F83420012805EBC4056B6004F5022512D00AD3022899
:2030A00014D1AB0003F184430122C3F80021C3F880210BE0AB0003F184430122C3F800211A
:2030C00004E0AB0003F18443C3F880012046AD0000F0D6F805F1844501232B600F2C1FD8F9
:2030E000DFE804F0080A0C0F1215151515151A1A1A1A1A1A40220CE080220AE04FF48072C2
:2031000007E04FF4007204E04FF4806201E04FF40002054B1A6038BD034B4FF480725A60E8
:2031200038BD00BF6811002000E100E007B500930023FFF7A5FF03B05DF804FB01F0030179
:2031400089000F238B408A4010B5046824EA03031343036010BD0000054A08B5136833B1E9
:2031600050689847034B01225A6100BF00BF08BD6811002000040140054A08B5936833B180
:20318000D0689847034B02225A6100BF00BF08BD6811002000040140054A08B5136933B15E
:2031A00050699847034B04225A6100BF00BF08BD6811002000040140054A08B5936933B13B
:2031C000D0699847034B08225A6100BF00BF08BD6811002000040140054A08B5136A33B116
:2031E000506A9847034B10225A6100BF00BF08BD68110020000401400E4B2DE9F041D3F86F
:203200001480002505241F460126A64016EA080F08D0094AE10052F834301BB10A445068B7
:203220009847354301340A2CEED17D6100BF00BFBDE8F08100040140681100200E4B2DE94E
:20324000F041D3F8148000250A241F460126A64016EA080F08D0094AE10052F834301BB17C
:203260000A445068984735430134102CEED17D6100BF00BFBDE8F081000401406811002071
:2032800003460A4600F0FC01024808441946FFF755BF00BF08000140034B1A6822F00702B6
:2032A00010431860704700BF0020024008B5074801F068FD064801F065FD064801F062FDCA
:2032C000BDE80840044801F05DBD00BF880000209000002098000020A000002070B501F005
:2032E0000704A4000F25A5400368C80853F82060092A26EA050514BF1646082606FA04F45E
:20330000082A44EA050443F8204006D1012000FA01F1DA6822EA010106E0092A05D1012065
:2033200000FA01F1DA681143D96070BD08B5032000F0A2F8BDE80840032000F0B5B80000CE
:20334000014801F041BD00BFA8000020014801F03BBD00BFCC000020014801F0EBBD00BF30
:20336000A8000020014801F0E5BD00BFCC00002010B50021044690F9210000F007F894F9A8
:2033800022000021BDE8104000F000B800284FEA011105DA064B00F00F00C9B2195470470C
:2033A00000F16040C9B200F5614080F80013704714ED00E021F0604138B521F07F01084BC5
:2033C0000843986000241D4660B20F210134FFF7DDFF2B2CF8D1F02385F8233038BD00BF23
:2033E00000ED00E0014B13F81000704758650008064B5A6822F0030202435A6080005A68B2
:020000040800F2
:020000020000FC
:2034000002F00C028242FAD1704700BF00100240030A0121C0B201FA00F003F1804303F51A
:2034200004331A68104318607047030A0121C0B201FA00F003F1804303F504331A6822EA51
:20344000000018607047030A0222C0B202FA00F003F1804303F504331B6818407047000036
:20346000044B05C85968126821F4741102430A435A6070470010024010B50446FFF7B2FF50
:20348000074B53F82020074B03EB4404637803EBC2039B0003F1844301221A6010BD00BFBA
:2034A000F00000205865000810B50446FFF79AFF084B53F82020084B03EB4404637803EB69
:2034C000C2039B0003F1844301221A6000221A6010BD00BFFC0000205865000810B5054B16
:2034E000054C5A6854F8200022EA00021143596010BD00BF00100240B465000810B5044624
:20350000FFF770FF074B53F82020074B03EB4404637803EBC2039B0003F1844300221A6061
:2035200010BD00BF040100205865000801EBC0018B0003F184431A60704710B50446007969
:20354000FFF79AFF2079BDE81040FFF7ADBF006806210122FFF7EABF006806210022FFF7F4
:20356000E5BF38B5036804465A680D4622F0E0025A601B684B4013F4205F01D0FFF7ECFFFC
:20358000236820461D60BDE83840FFF7E0BF134343F004031943FFF7E4BF006801210430C8
:2035A0000A46FFF7C3BF0068012104300022FFF7BDBF0068002104300122FFF7B7BF00683D
:2035C000002104300A46FFF7B1BFF8B5069C9DF81C709DF820609DF8245069B12046394653
:2035E0000B22FFF77BFE204631460422FFF776FE204629460B2211E0194610460422FFF7FE
:203600006DFE204639460422FFF768FE204631460B22FFF763FE204629460422BDE8F8409F
:20362000FFF75CBEFEE70000024B072258601A60704700BF10E000E008B5044B1A680132E6
:203640001A60034B1B6803B1984708BD54120020E811002011F0010F70B542EA03030CBFF5
:203660000825002503FA05F5006801F1FF3400F11800C4F3400450F8241014BF6FF0FF06BD
:203680006FF47F463140294340F8241070BD0368013903F140432033DB0003EB8101890049
:2036A00001F1844101230B607047000010B504460448A0470448A0470448A0470448A04732
:2036C00010BD00BF7001002098010020280100204C01002010B504460079FFF7CDFE20797C
:2036E000BDE81040FFF7E0BE03791E2B10D9212B0ED0202B0ED9222B01D0252B04D10229C9
:203700008CBF0020012070474B1E58425841704701207047002070470368002203F1404360
:203720000C3301EBC3039B0003F1844302311A6040F82120704738B505460C461346002260
:20374000FFF788FF28462146BDE83840FFF79FBF38B543790446022B0D463ED0042A3CD8E3
:20376000DFE802F00312202A3600FFF7D5FF2368013D03F140432033DB0003EB85039B00B2
:2037800003F18443002221E00368002203F140430C3301EBC3039B0003F184431A60602204
:2037A000082301E010220023FFF754FF20462946BDE83840FFF76BBF03684FF2F1129A61A3
:2037C00003229A605B0103F1844301221A6038BD0122BDE83840FFF7AEBF38BD10B5074B72
:2037E0001C68E16822690A40120606D55B6A23B19847236923F08003236110BD70010020B8
:020000040800F2
:020000020000FC
:2038000010B5074B1C68E16822690A40D20706D59B6823B19847236923F00103236110BD91
:2038200070010020F8B50C4F3D68EB682E691E4016F0400403D03C6A0CB1A0474024B3067E
:2038400004D5FB6913B1984744F020042B6923EA04042C61F8BD00BF70010020F8B5134FE6
:203860003E68F36835691D4015F0100403D0BC690CB1A0471024290704D57B6913B19847D3
:2038800044F008046A0704D53B6913B1984744F00404AB0704D5FB6813B1984744F0020450
:2038A000336923EA04043461F8BD00BF70010020F8B51A4E3768FB683D691D4015F040045A
:2038C00003D0346A0CB1A0474024EB0604D5B36913B1984744F01004280704D5736913B1F6
:2038E000984744F00804690704D5336913B1984744F00404AA0704D5F36813B1984744F029
:203900000204EB0704D5B36813B1984744F001043B6923EA04043C61F8BD00BF980100205C
:20392000F8B51A4E3768FB683D691D4015F0400403D0346A0CB1A0474024EB0604D5B369C5
:2039400013B1984744F01004280704D5736913B1984744F00804690704D5336913B198472D
:2039600044F00404AA0704D5F36813B1984744F00204EB0704D5B36813B1984744F0010487
:203980003B6923EA04043C61F8BD00BF28010020F8B51A4E3768FB683D691D4015F04004B1
:2039A00003D0346A0CB1A0474024EB0604D5B36913B1984744F01004280704D5736913B115
:2039C000984744F00804690704D5336913B1984744F00404AA0704D5F36813B1984744F048
:2039E0000204EB0704D5B36813B1984744F001043B6923EA04043C61F8BD00BF4C010020C8
:203A0000436810B5002204463F2110309A801860DA801981A36894F890009A80DA8004F114
:203A200050021A601981FFF727FD94F891305AB2002A08DB012103F01F0301FA03F302492D
:203A4000521141F8223010BD00E100E00368DA6842F02C02DA60DA6842F40052DA607047E8
:203A6000F0B583680546046800209F88DE88BFB2B6B2B74204D0E36823F08003E36027E081
:203A800026683606F7D59042F5D00E5C01306660EBE7DF889E88BFB2B6B20137B74211F826
:203AA00000C01DD0DF881E89BFB2B6B2B74213D0DF881E68BFB206F807C0DF881E89BFB2F4
:203AC000B6B2B74218D0DE880136B6B2DE8001309042AB68DDD303E09E88B6B2002EE7D11D
:203AE0009A88DB8892B29BB29A4200D1F0BDE36843F08003E360F0BD0026E7E781880268FE
:203B0000034689B2505C99881A8989B292B2914217BF9A880022013292B2C0B29A8070478B
:203B2000C28838B5838892B29BB201329A4204460D461AD0C288038992B29BB29A4202D106
:203B400083889BB28BB14FF0FF30E288236892B29D54E288238992B29BB29A4217BFE38875
:203B6000002301339BB2E38038BD2046FFF7C6FFEBE770B51E460546084611460422059C16
:203B8000FFF7ACFB9DF810100B223046FFF7A6FB2B6804F00F01DA6804F0300422F4F05240
:203BA0001204120C42EA4122DA601A6922F440521204120C42EA04241C6170BD38B5044674
:203BC000154611B900F096F8014619235943AD006423B1FBF5F1B1FBF3F21201100903FBA2
:203BE000101109013231B1FBF3F303F00F0321681A4392B28A6038BD38B5114DEB6898065B
:020000040800F2
:020000020000FC
:203C000007D52B68990604D569680E48C9B2FFF787FFEB680A4C1A0611D523681B060ED561
:203C200009488288C38892B29BB29A4203D0FFF765FF606038BDE36823F08003E36038BD76
:203C400000380140F8110020EC11002038B5114DEB68980607D52B68990604D569680E485B
:203C6000C9B2FFF75DFFEB680A4C1A0611D523681B060ED509488288C38892B29BB29A4226
:203C800003D0FFF73BFF606038BDE36823F08003E36038BD00440040041200201C1200204B
:203CA00038B5114DEB68980607D52B68990604D569680E48C9B2FFF733FFEB680A4C1A064E
:203CC00011D523681B060ED509488288C38892B29BB29A4203D0FFF711FF606038BDE36883
:203CE00023F08003E36038BD00480040101200202812002008B590F89000FFF773FB20B1C8
:203D00000128034818BF002008BD024808BD00BF00A24A0400512502294B072818BF18703B
:203D20001A78052A49D8DFE802F003131E222A35244A4FF6FB71106C014011644FF43F411F
:203D4000116406221A70204B1B685A7B1A7370471C4A4FF6FB71106C014011644FF43F4129
:203D6000116404222AE002225A70032226E05A78013AD2B25A705B780BBB04221BE0114A15
:203D8000116C89B241F01001116405221A700A225A7070475A78013AD2B25A705B7873B9FC
:203DA000084A4FF6EF73116C0B401364064B1B685A7B1A730622024B00E006221A707047D7
:203DC0005C120020005C004084030020F8B56C4D6C4B2A685C6C1268A4B202F4806222428F
:203DE00006D06FF480625A64674B1B685B6898472B681B6823409F0403D5624A6FF40051BF
:203E00005164DE0406D55F4B6FF4C0525A640020FFF782FF2A681168214008050FD5594BBB
:203E2000186C80B240F0080640F00C001E641864107B5073032010736FF4C0525A648B059D
:203E400003D5504B6FF400725A64CF0506D54D4B6FF480725A640720FFF75EFF2B681B6872
:203E600003F40043234200F08980464B5A6C110440F184806FF4004112F00F06596458D168
:203E8000196848F6800008400028EED088B23F4C00F4405525803E4D00F0300028801868EF
:203EA000D60620F4804020F0700040F4004040F0800080F400501860186820F4E04020F0AE
:203EC000400040F4004040F0800080F02000186001D5080607D5196848F60F720A401A60B2
:203EE00000F0B0FD0BE0186840F68F7202401A600A0502D500F0BEFB01E000F023FD214BDB
:203F000022881968288821F4804121F0700141F4004141F08001514019601A6822F4E04282
:203F200022F0400242F4004242F0800242401A60F8BDB40004F1804404F5B84427683B0420
:203F40000CD5226840F68F7313402A682360926806F18043013B52F823309847380684D553
:203F6000226848F60F73134023602B6806F180465B68013E53F82630984776E7F8BD00BF7E
:203F800084030020005C004064120020581200205A120020800000F1804000F5B8400368A9
:203FA00023F4804323F0700343F4004343F08003594001607047000018B9034B07221B68F5
:203FC0001A820248704700BF8C120020E803002037B5114B1A681D46127802F07F02212A47
:203FE00001D0022016E0A0F12003012B0B4B0C4C1B6888BF002423B102A901F8010D0220B4
:020000040800F2
:020000020000FC
:204000009847002CEDD02B68002528469C615D82A047284603B030BD8C12002044120020AD
:20402000B93F000813B5104B1B681A7802F07F02212A14D1022806D0222806D19A780B4B1C
:2040400002F003021A70002400E00224084B1B6833B102A901F8010D0220984700E0022442
:20406000204602B010BD00BF8C120020341200204412002021B9022834BF00200220704712
:2040800002207047054B1B689B78032B04D8044901EBC30100F0C0BA002070478C1200205B
:2040A000D0030020014900F0B7BA00BF98030020014900F0B1BA00BFF00300200C4B0022F8
:2040C0001B6801219A720B4B4FF4E05019640A4909681A645A6418644FF43F405A64086085
:2040E0001864064B4FF4801018600A73704700BF8C120020005C00408403002000E100E0F3
:204100002DE9F843494B4A4C1B6800254FF0C0089D7283F809802565236848F68F163340F7
:2041200043F400732360236848F2800723F4E04323F040033B4383F010032360226D3D4BD8
:2041400052004FF0400943F80290236D80225B0003F1804303F5C0431A602368284623F4EF
:20416000E24323F070031B041B0C2360324B1B6893F82C1000F074F828464FF44051FFF770
:2041800009FFA3680220334043F4C063A360226D2A4B520013444FF480721A60A368294644
:2041A00023F4E04323F040033B4383F02003A360FFF7F0FEE36803203340E360226D204B56
:2041C000520013444FF488721A60494600F048F803204FF44051FFF7DDFE636801201E40AE
:2041E0006660226D174B520043F802806368294623F4E04323F040033B4383F02003636058
:20420000FFF7C8FE104B01221B6828461A7300F0FDFB0E4BFF221D600D4B1D600D4B1D605D
:204220000D4B1D600D4B1A70BDE8F8838C120020005C00400860004064120020206000404F
:204240003860004010600040840300204812002040120020381200204C1200203C120020ED
:204260000D4B3E291B6D03EBC0000C4B4FEA4000034409D94A09C80604BF02F1FF3292B204
:20428000920242F4004204E04A08C90748BF013292021A60704700BF005C00400C60004006
:2042A00010B5064C18B9236801221A8210BD044B1B681B68984720680A3010BD8C1200207E
:2042C0008812002010B5064C18B9236801221A8210BD044B1B689B68984720680C3010BDE0
:2042E0008C1200208812002010B5204B18B91B6802221A8210BD1E4A1968002010800C7818
:20430000134614F07F040DD14A7A910644BF0221197012F0400F1A7814BF22F0010242F0D8
:20432000010214E0012C1FD0022C1ED1097901F00F02920002F1804202F5B84211F0800F01
:20434000126806D002F03002102A07D101221A7004E002F44052B2F5805FF6E7054B1B6888
:204360001B699847024810BD104610BD8C1200205E12002088120020234A2DE9F84314685E
:204380009046238A267A214FA3B9042E12D120490A78012A0AD11F4A10681F4A80B2024466
:2043A0005200136030223A800B7027E010233B80072623E0A58AAB428CBF022604269D42F4
:2043C00028BF1D462846A36998478146002000F0C7FB2A460146484600F063FB294600207F
:2043E00000F0DAFB238A4FF440525B1B2382638A1D4430233B80094B65821A80D8F800302A
:020000040800F2
:020000020000FC
:204400001E72BDE8F88300BF8C1200205A12002050120020505C0040023000205812002099
:2044200010B50A4B0A491B6849789A7891420AD3D97841B99C8834B99A72064B1B685B680A
:204440009847204610BD022010BD00BF8C120020F80300208812002038B50E4A0E4C1268F0
:204460002368926918799978904723689A7A7AB170B95A7962B9DD7855B9084B1B68DB68E0
:204480009847236828461A79DA729A781A7338BD022038BD641200208C12002088120020AC
:2044A00038B52F4B1B68187810F07F0004D15A7A22F020025A7238BD02284ED15A88002A10
:2044C0004CD15A79002A49D11A79264D22F08000840004F1804101F5B84109682D7812F0CF
:2044E000800F14BF01F0300101F44051A84234D2002932D09B7A83B304F1804404F5B8449E
:20450000120623680CD503F03003102B1FD1C4B2204600F015FB2046302100F0ECFA16E067
:2045200003F44053B3F5805F11D128B90E4B93F82C1000F03FFB01E000F0F2FA236823F4FE
:20454000804323F070039BB283F440532360074B1B685B699847002038BD022038BD00BFD5
:204560008C120020F8030020A00300208812002038B51D4B1D4D19682D780A7922F08004E7
:20458000A30003F1804000F5B840006812F0800F14BF00F0300000F44050AC4222D24C88B1
:2045A00004BBF8B1897AE9B103F1804303F5B84312F0800F1A6807D022F4E04222F04002D6
:2045C00092B282F0100206E022F4804222F0700292B282F480521A60054B1B689B69984715
:2045E000002038BD022038BD8C120020F80300208812002008B5064B1B685A7A42F0200243
:204600005A72044B1B68DB699847002008BD00BF8C12002088120020054B1A68538A18B93D
:204620008988CB1A1382704708681844704700BF8C12002008B50B4B002093F82C1000F04E
:20464000B9FA094B1B68187A082806D1074B4FF480521A80064B10221A80B0F109035842D2
:20466000584108BDA00300208C120020581200205A12002073B5934E934B3268934D92B2A0
:2046800013445B001A682B68197A09290FD092B2520002F1804202F5C04211781970517890
:2046A000597091885980118999809289DA8001221A72DA885C78002A61D11A7812F07F02C1
:2046C0003AD1092C02D1FFF7ABFE44E0052C0FD193F90220002A01DA08234DE0DA78002A6C
:2046E000FAD19A88002AF7D19B7A002B37D0F3E7032C13D19A78012A07D0754B20461B68EA
:204700005B699847032828D135E09A88002AF4D15B7A9806F1D5FFF76DFF1CE0012CECD12B
:204720009A78012AE9D19A88002AE6D15B7A9906E3D5FFF7B5FE0EE0012A04D10B2CDCD1D8
:20474000FFF78AFE07E0022AD7D1012CF1D0032CD3D1FFF70DFF10B1CFE70028BCD1326897
:204760005C4B92B213445B0000221A605A4B30221A80062300E009232A681372CEE0062C43
:2047800013D11A78520677D1DA78514B012A02D11B68DB6967E0022A02D11B681B6A62E0C0
:2047A000032A69D11B685B6A5DE0002C3CD15988002961D15A6822F0FF02B2F5003F5BD1B1
:2047C0001A7812F07F0204D19B88002B00F0AA8052E0012A0CD13E4A1879126892699047E8
:2047E000002849D12B689B7A002B40F09B8043E0022A41D11B79394803F00F018A0002F163
:020000040800F2
:020000020000FC
:20480000804202F5B8421268007813F0800F14BF02F0300202F4405281422DD213F0700F9E
:204820002AD1002A7ED127E0082C03D11B785B067AD021E00A2C1FD11A7802F07F02012A60
:204840001AD19A7AC2B15988B1B95A6822F0FF02B2F5803F10D11E4A18791268926990473A
:20486000002863D008E03BB12A680024548293612046984720460AE0154B1A682B68126904
:2048800058789047032802D1104B1B6805E02B684FF6FF711A8A8A4201D1092203E00228EE
:2048A00000D012B908221A7238E093F9001000292EDAD988019101988242054810D9019AA1
:2048C0001A821EE0505C0040043000208C12002064120020023000205A120020F8030020B1
:2048E0008A420ED2016891F82C108A4201D2002105E092FBF1F401FB142212B901210C4A52
:204900001170026892F82C209A82FFF735FD05E003221A72074B4FF440521A80FFF78AFEBD
:2049200002B070BD044B9FE7044B9DE7044B9BE75012002058120020E9420008A1420008F5
:20494000C5420008F8B52B4D2C68237A032B01D0052B41D1A369228AABB1A2B1A68A964242
:2049600028BF164630469847238A07469B1B2382638A00203344638200F000F93246014639
:20498000384600F0A6F8238A53B11B4B00204FF4405201461A8000F0FFF8184B30221A80E8
:2049A000238AA28A9A4202D82B68032202E01BB12B6805221A720CE02A6806211172104A3A
:2049C0001168104A89B20A44520013600B4B30221A802B681B7A06E0072B03D10A4B1B6888
:2049E000DB68984708232A681372BDE8F840FFF721BE00BF8C120020581200205A1200200E
:204A0000505C0040023000206412002030B50B4B1C780023A3420CD203F1805202F5B85246
:204A200091000D6848F68F722A401A430A600133F0E7034B40F08000186030BDF803002077
:204A40004C5C004010B5134C23681A7A022A01D0042A04D1FFF790FC23681B7A13E0062A66
:204A600010D15A78052A09D11A78520606D19878FFF7CCFF084B1B681B6A9847074B1B68D9
:204A80009B689847082322681372BDE81040FFF7D1BD00BF8C1200208812002064120020B4
:204AA000704730B501F10051013201F54051521049000023934200F1020009D010F8015C89
:204AC00010F8024C44EA052421F823400133F1E730BD10B501F10051013201F54051521090
:204AE00049000023934205D051F8234020F813400133F7E710BD800000F1804000F5B8408C
:204B00000368CA0623F4E04323F040039BB248BF83F010038A0648BF83F0200303607047A9
:204B2000800000F1804000F5B84003685B0406D5026848F68F73134043F4804303607047A1
:204B4000800000F1804000F5B84003685B0606D5026848F68F73134043F040030360704703
:204B6000054B1B689BB203EBC00000F1005000F54050400000887047505C0040044B1B6864
:204B80009BB203EBC000034B03445B0018887047505C004004300020044B1B689BB203EB86
:204BA000C000034B03445B0019607047505C0040023000200D4B3E291B689BB203EBC0009A
:204BC0000B4B03444FEA430209D94B09C80604BF03F1FF339BB29B0243F4004304E04B0832
:204BE000C90748BF01339B0213607047505C00400630002008B5114B0D211C68032220464B
:020000040800F2
:020000020000FC
:204C0000FEF76CFB002301211A469342206834BF4FF400554FF00055B2F5007F056103F197
:204C2000010303D0002A08BF012101E04FF0FF31B3F5007F04BF52180023E6E75465000835
:204C400008B5034B0BB1AFF3008062B6FFF7D2FF00000000FDF794BE08B5FBF765FBFBF745
:204C600019FFFCE7222870B53BD8082939D8DFE801F0051A080B0E110814170000240322F0
:204C800013E00024042210E0002422460DE0002409220AE00024082207E001240B2204E0CA
:204CA00001240F2201E0002407220E4B00011E18317B1858FEF712FB706890B1717B24B1E8
:204CC0000122BDE87040FEF743BD0368013903F140432033DB0003EB81039B0003F1844355
:204CE0001C6070BDF8620008222810D8084B00011A18127B1B58012000FA02F2D1F101011E
:204D000038BF0021090102FA01F11B6819617047F86200080A4B1A680A4B9B6800BF00BFC0
:204D2000074909688A42F5D1C3F58C33482103F5A073B3FBF1F34FF47A7000FB0230704792
:204D40005412002010E000E038B50446FFF7E2FF054644B100F015F8FFF7DCFF401BB0F5E1
:204D60007A7F01D2F5E738BD013C05F57A75F3D138BD28B10C235843431E18460138FDD847
:204D80007047704710B504460079FEF775FB2079BDE81040FEF788BB03681A6812F4985F08
:204DA000FBD11A6842F480721A60704703681A6812F4985FFBD11A6842F400721A601A6870
:204DC00012F4985FFBD17047026870B553699269574A45681268AE78C260DA07044606F0DC
:204DE000010612D50023EB80FEF7C2FA23685A6842F480625A601EB11A6842F480621A6084
:204E00002A8846EA42021A61002313F00A0F2CD0AB8886B1012B25D1236820461A6822F4A1
:204E200080621A60A38B012B02D9FFF7B5FF19E0FFF7BCFF16E0012B07D9EB88A9685A1C91
:204E4000EA80CB5C226813610EE06BB92046FFF7ADFF23685A6822F400725A60022384F879
:204E6000233001E0002300E0334603F08402802A13D1A28B82B1E888AE68411C89B2E98094
:204E8000305C23681861A888884205D15968013A21F480615960A283002303F08402842A98
:204EA00018D1A68B204656B1FFF776FF22685369D907FCD563680C33636000230AE0FFF739
:204EC00075FF23685A6822F400725A60022384F8233033465B062AD5EB88AA68591CE9809F
:204EE00021680969D154AB88EA88591E8A4210D1236820461A6822F480621A60A38B022B89
:204F000003D9BDE87040FFF747BFBDE87040FFF74DBF9A420BD1A38B013B9BB2A3831BB9A4
:204F2000022384F8233070BD63680C33636070BD54120020036810B55A69044602F47062CB
:204F4000826000225A619A61FFF730FF23685A6822F4E0625A60FF2384F8233010BD000055
:204F60004BB942B9002908BF002802D04FF0FF31084600F03BB882B0EC462DE9005000F0EE
:204F80001DF8DDF804E002B00CBC70472DE9704F089E14461D468046894600F029F804FB35
:204FA00001F3A4FB00AB00FB05329344B8EB0A0869EB0B09C6E90089BDE8708F2DE9704FDC
:204FC000089E14461D468046894600F061F900FB05F5A0FB04AB04FB0154A344B8EB0A0860
:204FE00069EB0B09C6E90089BDE8708F704700BF00292DE9F00FC0F2A1800024002BC0F2E5
:020000040800F2
:020000020000FC
:205000009880154606460F46002B3FD18A4258D9B2FA82F34BB1C3F1200201FA03F720FA42
:2050200002F29D4000FA03F61743290CB7FBF1F201FB1277A8B200FB02F34FEA164C4CEAE8
:205040000747BB4209D97F1902F1FF3C80F00581BB4240F20281023A2F44FF1AB7FBF1F357
:2050600001FB137100FB03F0B6B246EA0141884208D9491903F1FF3780F0F180884240F2D4
:20508000EE80023B43EA0242002303E08B420AD900231A461046194614B1404261EB410131
:2050A000BDE8F00F7047B3FA83F8B8F1000F40F088808B4202D3824200F2E280002301227D
:2050C000E8E712B90123B3FBF2F5B5FA85F2002A3AD17F1B280C1FFA85FC0123B7FBF0F103
:2050E00000FB11770CFB01F24FEA164848EA0747BA4207D97F1901F1FF3802D2BA4200F2BD
:20510000C4804146BF1AB7FBF0F200FB12700CFB02FCB6B246EA0040844507D9401902F108
:20512000FF3702D2844500F2AE803A4642EA0142B0E7E443524263EB430362E7404261EB90
:2051400041014FF0FF3459E79540C2F1200927FA09F126FA09F99740280CB1FBF0F800FBD3
:2051600018111FFA85FC0CFB08F349EA07094FEA194747EA01418B4206FA02F608D9491913
:2051800008F1FF327AD28B4278D9A8F102082944C91AB1FBF0F300FB13170CFB03F21FFABF
:2051A00089F949EA0747BA4207D97F1903F1FF3160D2BA425ED9023B2F44BF1A43EA0843EE
:2051C0008CE7C8F1200225FA02F103FA08FC27FA02F320FA02F207FA08F741EA0C0C4FEACE
:2051E0001C49B3FBF9F109FB11331FFA8CFA0AFB01FB17433A0C42EA03439B4505FA08F0E1
:2052000008D913EB0C0301F1FF3235D29B4533D902396344CBEB0303B3FBF9F209FB12330A
:205220000AFB02FABFB247EA0347BA4508D917EB0C0702F1FF331BD2BA4519D9023A6744A2
:2052400042EA0145A5FB0001CAEB07078F424FF000030AD305D02A461CE76246FDE63B4634
:2052600010E706FA08F68642F5D26A1E002311E71A46E5E70B46A0E71146CBE7904687E7B6
:205280004346424606E7023A50E702392F4439E72DE9F00F144605460E46002B43D18A42B6
:2052A00053D9B2FA82F757B1C7F1200620FA06F601FA07F302FA07F400FA07F51E43210C31
:2052C000B6FBF1F201FB1266A0B200FB02F32F0C47EA0646B34209D9361902F1FF3780F00D
:2052E000FD80B34240F2FA80023A2644F61AB6FBF1F301FB136100FB03F0ADB245EA014117
:20530000884208D9091903F1FF3680F0E980884240F2E680023B43EA0242002310461946D6
:20532000BDE8F00F70478B424CD8B3FA83F6002E4FD18B4202D3824200F2DD80BDE8F00F54
:205340000023012210461946704712B90124B4FBF2F4B4FA84F2002A40F08280091B260C40
:20536000A7B20123B1FBF6F006FB101107FB00F24FEA154C4CEA01418A4207D9091900F137
:20538000FF3C02D28A4200F2C8806046891AB1FBF6F206FB121107FB02F7ADB245EA014528
:2053A000AF4208D92C1902F1FF3180F09B80A74240F29880023A42EA004210461946BDE8F1
:2053C000F00F704700231A4610461946BDE8F00F7047C6F1200522FA05F703FA06F421FA7E
:2053E00005F301FA06FB20FA05F53C434FEA1448B3FBF8FC08FB1C331FFA84F909FB0CFAFD
:020000040800F2
:020000020000FC
:2054000045EA0B0B4FEA1B4545EA03439A4502FA06F204D91B190CF1FF356FD3AC46CAEB3B
:205420000303B3FBF8F508FB153309FB05F91FFA8BFB4BEA0347B94504D93F1905F1FF3305
:2054400062D31D4645EA0C4CACFB0223C9EB07079F424FF000054AD346D062462B465DE7EA
:205460009440C2F1200921FA09FC914020FA09F9260CBCFBF6F806FB18CCA7B207FB08F35D
:2054800049EA01094FEA194141EA0C4C634500FA02F509D91CEB040C08F1FF323BD2634548
:2054A00039D9A8F10208A444C3EB0C0CBCFBF6F306FB13C107FB03F21FFA89F949EA01410D
:2054C0008A4207D9091903F1FF3022D28A4220D9023B2144891A43EA084343E73A4605E7CF
:2054E000334618E70A4666E7B0409042B5D20CF1FF32002312E7334632460FE79A458DD9D8
:20550000ACF1020C23448AE7B9459AD9023D274498E70346DEE79046C6E70238214435E722
:2055200008B50021044600F061F9044B1868C36B03B198472046FDF7D9FA00BF44660008CB
:2055400070B50F4E0F4D761BB61007D0043D0024013455F8043F9847A642F9D10A4E0B4DD4
:2055600000F02EFA761BB61008D0043D0024013455F8043F9847A642F9D170BD70BD00BF10
:20558000CC590008CC590008E8590008CC590008032A70B428D940EA01039B0713D00578B9
:2055A0000C78A54224D1013A002305E010F8015F11F8014FA5421BD1934203F10103F5D121
:2055C000002070BC70470C46034625681E682146AE42184604F1040403F1040304D1043A5A
:2055E000032A18462146F0D8002AD8D11046E8E7281B70BC704700BF844641EA000313F019
:20560000030349D1403A23D30B6803604B6843608B688360CB68C3600B6903614B69436172
:205620008B698361CB69C3610B6A03624B6A43628B6A8362CB6AC3620B6B03634B6B43639A
:205640008B6B8363CB6BC36340304031403ADBD230320BD30B6803604B6843608B688360C8
:20566000CB68C36010301031103AF3D20C3205D351F8043B40F8043B043AF9D2043208D018
:20568000D2071CBF11F8013B00F8013B01D30B8803806046704700BF082A13D38B07B1D0AC
:2056A00010F00303AED0C3F10403D21ADB071CBF11F8013B00F8013BA4D331F8023B20F894
:2056C000023B9FE7043AD9D3013A11F8013B00F8013BF9D20B7803704B7843708B7883703C
:2056E00060467047F0B4840743D0541E002A3ED0CDB2034603E0621E002C38D0144603F8AD
:20570000015B9A07F7D1032C2AD9CDB245EA05250F2C45EA054515D9A4F110073F0903F130
:20572000100606EB07161A46156055609560D5601032B242F8D104F00F040137032C03EB36
:2057400007130DD91E462246043A032A46F8045BFAD8221F22F003020432134404F00304C3
:205760002CB1C9B21C4403F8011BA342FBD1F0BC704714460346C6E720F0030110F00300DF
:20578000C0F1000051F8043B00F1040C4FEACC0C6FF000021CBF22FA0CF213434FF0010CC6
:2057A0004CEA0C2C4CEA0C4CA3EB0C0222EA030212EACC1204BF51F8043B0430F4D013F020
:2057C000FF0F1FBF013013F47F4F013013F47F0F18BF0130704700BF024B13B1024800F048
:2057E0007DB8704700000000E95800082DE9F04F384B85B01B68029003F5A47201930F465B
:020000040800F2
:020000020000FC
:205800000392019BD3F84881B8F1000F1CD0DDF80CB04FF00109DA46D8F804305C1E11D4C2
:2058200008F188059E1C05EB830508EB860677B1EB6FBB420BD0013C631CA5F10405A6F1E5
:205840000406F4D1244A7ABB05B0BDE8F08FD8F8042056F8043C013AA24216BF0022C8F8A5
:20586000044046F8042C002BE5D009FA04F2D8F88811D8F804B00A4210D0D8F88C110A42CB
:205880000ED1029855F8041C9847D8F804305B45B7D1DAF800304345CDD0B2E79847F4E79D
:2058A00055F8040C9847F0E7D8F804306BB9D8F8003063B14046CAF80030AFF30080DAF82D
:2058C0000080B8F1000FA7D1BEE7D8F80030C2469846F6E744660008000000000146002097
:2058E0000246034600F018B838B5094D094C641BA41018BF05EB840505D0013C55F8043D9C
:205900009847002CF9D1BDE8384000F06DB800BFF4590008F8590008F0B5274C85B0266838
:205920000746D6F84841002C40D065681F2D1EDD224818B94FF0FF3005B0F0BD4FF4C870ED
:20594000039102920193AFF3008003990446029A019B0028EED0D6F8485100202560606099
:205960000546C6F84841C4F88801C4F88C013FB96B1C00200235636044F8251005B0F0BD9B
:205980000126AE4004EB8500C0F88820D4F88821022F42EA0602C4F88821C0F80831E7D136
:2059A000D4F88C311E43C4F88C61E1E706F5A674C6F84841B9E700BF44660008000000001F
:2059C000F8B500BFF8BC08BC9E467047D9570008554C000811010008390E000819240008B9
:2059E0006D2800087D280008F8B500BFF8BC08BC9E467047ED00000880D0FF7F010000001A
:205A00000000000000000000FF00000000001C0005000080000001000C0000200028014050
:205A2000010000000024014000120000000000000000000000000000000000001C000020B2
:205A4000240000200000024007000000000000000B000000000000000C00000000000000A2
:205A60000D000000000000000E000000000000000F000000000000001000000000000000EC
:205A80001100000044000020000801400B000000000C01400C010000001001400D02000083
:205AA000001401400E0300000054004000000000000000000000000090000020000000003C
:205AC0000000000000000706121F2000005800400000000000000000000000009000002020
:205AE000000000000000000000000B0A132122001C1002401810024014100240101002409B
:205B00000C1002401C1002401810024014100240003001401623000000380040172400008C
:205B20001001002018010020000400401C010000000000000000000000000000000000009A
:205B4000000000000000000000000000000800401D010000000000000000000000000000DF
:205B600000000000000000000000000000000000002C01401A00000000000000000000009E
:205B8000000000000000000000000000000000000000000000000000000000401B010000A9
:205BA00000000000000000000000000000000000000000000000000000000000C8010020FC
:205BC0005C020020F002002000380140F8110020EC11002020AA4400000000000000000068
:205BE0000000000000000000000000000000000000000000000000000000000000000000A5
:020000040800F2
:020000020000FC
:205C0000000000000000000000000000000000000000000000000000000000000000000084
:205C2000000000000000000000000000000000000000000000000000000000000000000064
:205C4000000000000000000000000000000000000000000000000000282500000044004073
:205C6000041200201C12002010552200000000000000000000000000000000000000000019
:205C8000000000000000000000000000000000000000000000000000000000000000000004
:205CA0000000000000000000000000000000000000000000000000000000000000000000E4
:205CC0000000000000000000000000000000000000000000000000000000000000000000C4
:205CE0000000000000000000000000002926000000480040101200202812002010552200AA
:205D0000000000000000000000000000000000000000000000000000000000000000000083
:205D2000000000000000000000000000000000000000000000000000000000000000000063
:205D4000000000000000000000000000000000000000000000000000000000000000000043
:205D6000000000000000000000000000000000000000000000000000000000000000000023
:205D80002A2700008803002000BF0000000000000000000000002D00F86500084300000073
:205DA000BD40000801410008A14A0008A14A0008D13F00082540000875400008B140000873
:205DC000A54000088540000800000000400000003B66000804000000D465000812000000C9
:205DE000C86500080C00000000C2010000000800E66500081200000004010000000000002D
:205E000000000000EC06002054070020BC0700200000000000000000000000000000000012
:205E20000000000000000000000000000000000000000000406600080000000000000000B4
:205E4000000000000000000000000000000000000000000000000000000000000000000042
:205E6000000000000000000000000000000000000000000000000000000000000000000022
:205E8000000000000000000000000000000000000000000000000000000000000000000002
:205EA000000000000000000001000000000000000E33CDAB34126DE6ECDE05000B000000B5
:205EC0000000000000000000000000000000000000000000000000000000000000000000C2
:205EE0000000000000000000000000000000000000000000000000000000000000000000A2
:205F0000000000000000000000000000000000000000000000000000000000000000000081
:205F2000000000000000000000000000000000000000000000000000000000000000000061
:205F4000000000000000000000000000000000000000000000000000000000000000000041
:205F6000000000000000000000000000000000000000000000000000000000000000000021
:205F8000000000000000000000000000000000000000000000000000000000000000000001
:205FA0000000000000000000000000000000000000000000000000000000000000000000E1
:205FC0000000000000000000000000000000000000000000000000000000000000000000C1
:205FE0000000000000000000000000000000000000000000000000000000000000000000A1
:020000040800F2
:020000020000FC
:20600000000000000000000000000000000000000000000000000000000000000000000080
:20602000000000000000000000000000000000000000000000000000000000000000000060
:20604000000000000000000000000000000000000000000000000000000000000000000040
:20606000000000000000000000000000000000000000000000000000000000000000000020
:20608000000000000000000000000000000000000000000000000000000000000000000000
:2060A0000000000000000000000000000000000000000000000000000000000000000000E0
:2060C0000000000000000000000000000000000000000000000000000000000000000000C0
:2060E0000000000000000000000000000000000000000000000000000000000000000000A0
:2061000000000000000000000000000000000000000000000000000000000000000000007F
:2061200000000000000000000000000000000000000000000000000000000000000000005F
:2061400000000000000000000000000000000000000000000000000000000000000000003F
:2061600000000000000000000000000000000000000000000000000000000000000000001F
:206180000000000000000000000000000000000000000000000000000000000000000000FF
:2061A0000000000000000000000000000000000000000000000000000000000000000000DF
:2061C0000000000000000000000000000000000000000000000000000000000000000000BF
:2061E00000000000000000000000000000000000000000000000000000000000000000009F
:2062000000000000000000000000000000000000000000000000000000000000000000007E
:2062200000000000000000000000000000000000D10100086B2C00084B2C0008410100081C
:206240006D010008670100086101000800000000000001011F000000544E42202020202049
:20626000417264534353696E6F2020202020202030303130060A0A01010C534420696E6918
:206280007469616C697A6174696F6E206661696C6564210048442E484453004572726F720D
:2062A0003A206F70656E206864696D6700466F756E642056616C696420484420496D616753
:2062C000652046696C652E0062797465004B42004D420000000000000000000000000000BB
:2062E000CD220008132300083123000875220008A122000800000000880000209801002042
:2063000024000020000100008800002098010020240000200102010088000020980100202E
:206320002400002002030200880000209801002024000020030403008800002000000000BB
:2063400024000020040004008800002000000000240000200500050088000020280100200A
:2063600024000020060106008800002028010020240000200702070088000020700100204E
:20638000000000000801FF008800002070010020000000000902FF00880000207001002079
:2063A000000000000A03FF008800002070010020000000000B04FF008800002000000000E2
:2063C000000000000C00FF008800002000000000000000000D00FF00880000200000000056
:2063E000000000000E00FF008800002000000000000000000F00FF009000002028010020E1
:020000040800F2
:020000020000FC
:20640000240000200003080090000020280100202400002001040900900000200000000032
:20642000000000000200FF009000002000000000000000000300FF009000002000000000F9
:20644000000000000400FF009000002000000000000000000500FF00900000204C01002068
:20646000000000000601FF00900000204C010020000000000702FF00900000204C010020D4
:20648000000000000803FF00900000204C010020000000000904FF00900000200000000019
:2064A000000000000A00FF009000002000000000000000000B00FF00900000200000000069
:2064C000000000000C00FF009000002000000000000000000D00FF00900000200000000045
:2064E000000000000E00FF009000002000000000000000000F00FF00980000200000000019
:20650000000000000D00FF009800002000000000000000000E00FF009800002000000000F2
:20652000000000000F00FF000000000000000000932B00086B2C00084B2C00084B2B0008EB
:20654000112B0008572B0008792B00080000000088000020980000200109010A010F01003B
:20656000001B020600000200000002040000010201030104010500000000000000150016B3
:20658000001C0000010C000E00000202010B000000010002000000000000000000000000B1
:2065A0000000000000000000010E00110012000000000017F0000000000700000038000063
:2065C0000000C00000C000000C034D00610070006C00650012034C006500610066004C0064
:2065E0006100620073001201000202000040AF1E040000020102000109024300020100C026
:206600003209040000010202010005240001100524010301042402060524060001070582DF
:20662000034000FF09040100020A00000007050302400000070581024000000403090400CA
:206640004300000000040020040506071C1D1E1F0008101820283038005A0008FFFFFFFF09
:20666000FFFFFFFFFFFFFFFFFFFFFFFFFFFFFFFFFFFFFFFFFFFFFFFFFFFFFFFFFFFFFFFF3A
:20668000FFFFFFFFFFFFFFFFFFFFFFFFFFFFFFFFFFFFFFFFFFFFFFFFFFFFFFFFFFFFFFFF1A
:2066A000FFFFFFFFFFFFFFFFFFFFFFFFFFFFFFFFFFFFFFFFFFFFFFFFFFFFFFFFFFFFFFFFFA
:2066C000FFFFFFFFFFFFFFFFFFFFFFFFFFFFFFFFFFFFFFFFFFFFFFFFFFFFFFFFFFFFFFFFDA
:020000020000FC
